{
  "contractName": "AssetManager",
  "abi": [
    {
      "inputs": [],
      "stateMutability": "nonpayable",
      "type": "constructor"
    },
    {
      "anonymous": false,
      "inputs": [
        {
          "indexed": true,
          "internalType": "address",
          "name": "owner",
          "type": "address"
        },
        {
          "indexed": true,
          "internalType": "address",
          "name": "approved",
          "type": "address"
        },
        {
          "indexed": true,
          "internalType": "uint256",
          "name": "tokenId",
          "type": "uint256"
        }
      ],
      "name": "Approval",
      "type": "event"
    },
    {
      "anonymous": false,
      "inputs": [
        {
          "indexed": true,
          "internalType": "address",
          "name": "owner",
          "type": "address"
        },
        {
          "indexed": true,
          "internalType": "address",
          "name": "operator",
          "type": "address"
        },
        {
          "indexed": false,
          "internalType": "bool",
          "name": "approved",
          "type": "bool"
        }
      ],
      "name": "ApprovalForAll",
      "type": "event"
    },
    {
      "anonymous": false,
      "inputs": [
        {
          "indexed": true,
          "internalType": "address",
          "name": "previousOwner",
          "type": "address"
        },
        {
          "indexed": true,
          "internalType": "address",
          "name": "newOwner",
          "type": "address"
        }
      ],
      "name": "OwnershipTransferred",
      "type": "event"
    },
    {
      "anonymous": false,
      "inputs": [
        {
          "indexed": true,
          "internalType": "address",
          "name": "from",
          "type": "address"
        },
        {
          "indexed": true,
          "internalType": "address",
          "name": "to",
          "type": "address"
        },
        {
          "indexed": true,
          "internalType": "uint256",
          "name": "tokenId",
          "type": "uint256"
        }
      ],
      "name": "Transfer",
      "type": "event"
    },
    {
      "inputs": [
        {
          "internalType": "address",
          "name": "",
          "type": "address"
        },
        {
          "internalType": "string",
          "name": "",
          "type": "string"
        }
      ],
      "name": "activeFunctionalAssets",
      "outputs": [
        {
          "internalType": "uint256",
          "name": "",
          "type": "uint256"
        }
      ],
      "stateMutability": "view",
      "type": "function",
      "constant": true
    },
    {
      "inputs": [
        {
          "internalType": "address",
          "name": "to",
          "type": "address"
        },
        {
          "internalType": "uint256",
          "name": "tokenId",
          "type": "uint256"
        }
      ],
      "name": "approve",
      "outputs": [],
      "stateMutability": "nonpayable",
      "type": "function"
    },
    {
      "inputs": [
        {
          "internalType": "uint256",
          "name": "",
          "type": "uint256"
        }
      ],
      "name": "assets",
      "outputs": [
        {
          "internalType": "string",
          "name": "assetIdentifier",
          "type": "string"
        },
        {
          "internalType": "string",
          "name": "assetIssuer",
          "type": "string"
        },
        {
          "internalType": "string",
          "name": "assetType",
          "type": "string"
        },
        {
          "internalType": "enum AssetManager.Status",
          "name": "status",
          "type": "uint8"
        },
        {
          "internalType": "string",
          "name": "issuerType",
          "type": "string"
        },
        {
          "internalType": "bool",
          "name": "isTransferable",
          "type": "bool"
        },
        {
          "internalType": "bool",
          "name": "isFunctional",
          "type": "bool"
        }
      ],
      "stateMutability": "view",
      "type": "function",
      "constant": true
    },
    {
      "inputs": [
        {
          "internalType": "address",
          "name": "owner",
          "type": "address"
        }
      ],
      "name": "balanceOf",
      "outputs": [
        {
          "internalType": "uint256",
          "name": "",
          "type": "uint256"
        }
      ],
      "stateMutability": "view",
      "type": "function",
      "constant": true
    },
    {
      "inputs": [
        {
          "internalType": "uint256",
          "name": "tokenId",
          "type": "uint256"
        }
      ],
      "name": "getApproved",
      "outputs": [
        {
          "internalType": "address",
          "name": "",
          "type": "address"
        }
      ],
      "stateMutability": "view",
      "type": "function",
      "constant": true
    },
    {
      "inputs": [
        {
          "internalType": "address",
          "name": "owner",
          "type": "address"
        },
        {
          "internalType": "address",
          "name": "operator",
          "type": "address"
        }
      ],
      "name": "isApprovedForAll",
      "outputs": [
        {
          "internalType": "bool",
          "name": "",
          "type": "bool"
        }
      ],
      "stateMutability": "view",
      "type": "function",
      "constant": true
    },
    {
      "inputs": [],
      "name": "name",
      "outputs": [
        {
          "internalType": "string",
          "name": "",
          "type": "string"
        }
      ],
      "stateMutability": "view",
      "type": "function",
      "constant": true
    },
    {
      "inputs": [],
      "name": "nextTokenId",
      "outputs": [
        {
          "internalType": "uint256",
          "name": "",
          "type": "uint256"
        }
      ],
      "stateMutability": "view",
      "type": "function",
      "constant": true
    },
    {
      "inputs": [],
      "name": "owner",
      "outputs": [
        {
          "internalType": "address",
          "name": "",
          "type": "address"
        }
      ],
      "stateMutability": "view",
      "type": "function",
      "constant": true
    },
    {
      "inputs": [
        {
          "internalType": "uint256",
          "name": "tokenId",
          "type": "uint256"
        }
      ],
      "name": "ownerOf",
      "outputs": [
        {
          "internalType": "address",
          "name": "",
          "type": "address"
        }
      ],
      "stateMutability": "view",
      "type": "function",
      "constant": true
    },
    {
      "inputs": [],
      "name": "renounceOwnership",
      "outputs": [],
      "stateMutability": "nonpayable",
      "type": "function"
    },
    {
      "inputs": [
        {
          "internalType": "address",
          "name": "operator",
          "type": "address"
        },
        {
          "internalType": "bool",
          "name": "approved",
          "type": "bool"
        }
      ],
      "name": "setApprovalForAll",
      "outputs": [],
      "stateMutability": "nonpayable",
      "type": "function"
    },
    {
      "inputs": [
        {
          "internalType": "bytes4",
          "name": "interfaceId",
          "type": "bytes4"
        }
      ],
      "name": "supportsInterface",
      "outputs": [
        {
          "internalType": "bool",
          "name": "",
          "type": "bool"
        }
      ],
      "stateMutability": "view",
      "type": "function",
      "constant": true
    },
    {
      "inputs": [],
      "name": "symbol",
      "outputs": [
        {
          "internalType": "string",
          "name": "",
          "type": "string"
        }
      ],
      "stateMutability": "view",
      "type": "function",
      "constant": true
    },
    {
      "inputs": [
        {
          "internalType": "uint256",
          "name": "tokenId",
          "type": "uint256"
        }
      ],
      "name": "tokenURI",
      "outputs": [
        {
          "internalType": "string",
          "name": "",
          "type": "string"
        }
      ],
      "stateMutability": "view",
      "type": "function",
      "constant": true
    },
    {
      "inputs": [
        {
          "internalType": "address",
          "name": "newOwner",
          "type": "address"
        }
      ],
      "name": "transferOwnership",
      "outputs": [],
      "stateMutability": "nonpayable",
      "type": "function"
    },
    {
      "inputs": [
        {
          "internalType": "address",
          "name": "to",
          "type": "address"
        },
        {
          "internalType": "string",
          "name": "assetIdentifier",
          "type": "string"
        },
        {
          "internalType": "string",
          "name": "assetIssuer",
          "type": "string"
        },
        {
          "internalType": "string",
          "name": "assetType",
          "type": "string"
        },
        {
          "internalType": "string[]",
          "name": "categories",
          "type": "string[]"
        },
        {
          "internalType": "enum AssetManager.Status",
          "name": "status",
          "type": "uint8"
        },
        {
          "internalType": "string",
          "name": "issuerType",
          "type": "string"
        },
        {
          "internalType": "bool",
          "name": "isTransferable",
          "type": "bool"
        },
        {
          "internalType": "bool",
          "name": "isFunctional",
          "type": "bool"
        }
      ],
      "name": "issueAsset",
      "outputs": [],
      "stateMutability": "nonpayable",
      "type": "function"
    },
    {
      "inputs": [
        {
          "internalType": "uint256",
          "name": "tokenId",
          "type": "uint256"
        },
        {
          "internalType": "enum AssetManager.Status",
          "name": "status",
          "type": "uint8"
        }
      ],
      "name": "updateAssetStatus",
      "outputs": [],
      "stateMutability": "nonpayable",
      "type": "function"
    },
    {
      "inputs": [
        {
          "internalType": "address",
          "name": "from",
          "type": "address"
        },
        {
          "internalType": "address",
          "name": "to",
          "type": "address"
        },
        {
          "internalType": "uint256",
          "name": "tokenId",
          "type": "uint256"
        }
      ],
      "name": "safeTransferFrom",
      "outputs": [],
      "stateMutability": "nonpayable",
      "type": "function"
    },
    {
      "inputs": [
        {
          "internalType": "address",
          "name": "from",
          "type": "address"
        },
        {
          "internalType": "address",
          "name": "to",
          "type": "address"
        },
        {
          "internalType": "uint256",
          "name": "tokenId",
          "type": "uint256"
        },
        {
          "internalType": "bytes",
          "name": "_data",
          "type": "bytes"
        }
      ],
      "name": "safeTransferFrom",
      "outputs": [],
      "stateMutability": "nonpayable",
      "type": "function"
    },
    {
      "inputs": [
        {
          "internalType": "address",
          "name": "from",
          "type": "address"
        },
        {
          "internalType": "address",
          "name": "to",
          "type": "address"
        },
        {
          "internalType": "uint256",
          "name": "tokenId",
          "type": "uint256"
        }
      ],
      "name": "transferFrom",
      "outputs": [],
      "stateMutability": "nonpayable",
      "type": "function"
    }
  ],
  "bytecode": "0x60806040523480156200001157600080fd5b506040518060400160405280600c81526020017f41737365744d616e6167657200000000000000000000000000000000000000008152506040518060400160405280600381526020017f41534d0000000000000000000000000000000000000000000000000000000000815250816000908051906020019062000096929190620001a6565b508060019080519060200190620000af929190620001a6565b505050620000d2620000c6620000d860201b60201c565b620000e060201b60201c565b620002bb565b600033905090565b6000600660009054906101000a900473ffffffffffffffffffffffffffffffffffffffff16905081600660006101000a81548173ffffffffffffffffffffffffffffffffffffffff021916908373ffffffffffffffffffffffffffffffffffffffff1602179055508173ffffffffffffffffffffffffffffffffffffffff168173ffffffffffffffffffffffffffffffffffffffff167f8be0079c531659141344cd1fd0a4f28419497f9722a3daafe3b4186f6b6457e060405160405180910390a35050565b828054620001b49062000256565b90600052602060002090601f016020900481019282620001d8576000855562000224565b82601f10620001f357805160ff191683800117855562000224565b8280016001018555821562000224579182015b828111156200022357825182559160200191906001019062000206565b5b50905062000233919062000237565b5090565b5b808211156200025257600081600090555060010162000238565b5090565b600060028204905060018216806200026f57607f821691505b602082108114156200028657620002856200028c565b5b50919050565b7f4e487b7100000000000000000000000000000000000000000000000000000000600052602260045260246000fd5b6155be80620002cb6000396000f3fe608060405234801561001057600080fd5b50600436106101375760003560e01c8063715018a6116100b8578063a22cb4651161007c578063a22cb4651461033a578063b88d4fde14610356578063c87b56dd14610372578063cf35bdd0146103a2578063e985e9c5146103d8578063f2fde38b1461040857610137565b8063715018a6146102a657806375794a3c146102b057806375b707a3146102ce5780638da5cb5b146102fe57806395d89b411461031c57610137565b806342842e0e116100ff57806342842e0e146101f25780634554f3cf1461020e5780635d0741f61461022a5780636352211e1461024657806370a082311461027657610137565b806301ffc9a71461013c57806306fdde031461016c578063081812fc1461018a578063095ea7b3146101ba57806323b872dd146101d6575b600080fd5b61015660048036038101906101519190614525565b610424565b60405161016391906149b0565b60405180910390f35b610174610506565b60405161018191906149cb565b60405180910390f35b6101a4600480360381019061019f9190614577565b610598565b6040516101b19190614949565b60405180910390f35b6101d460048036038101906101cf91906144e9565b6105de565b005b6101f060048036038101906101eb9190614251565b6106f6565b005b61020c60048036038101906102079190614251565b610bcf565b005b610228600480360381019061022391906145a0565b6110a8565b005b610244600480360381019061023f91906143ab565b61159d565b005b610260600480360381019061025b9190614577565b611a0b565b60405161026d9190614949565b60405180910390f35b610290600480360381019061028b91906141ec565b611a92565b60405161029d9190614c98565b60405180910390f35b6102ae611b4a565b005b6102b8611b5e565b6040516102c59190614c98565b60405180910390f35b6102e860048036038101906102e39190614357565b611b64565b6040516102f59190614c98565b60405180910390f35b610306611b9f565b6040516103139190614949565b60405180910390f35b610324611bc9565b60405161033191906149cb565b60405180910390f35b610354600480360381019061034f919061431b565b611c5b565b005b610370600480360381019061036b91906142a0565b611c71565b005b61038c60048036038101906103879190614577565b61214c565b60405161039991906149cb565b60405180910390f35b6103bc60048036038101906103b79190614577565b6121b4565b6040516103cf97969594939291906149ed565b60405180910390f35b6103f260048036038101906103ed9190614215565b61243d565b6040516103ff91906149b0565b60405180910390f35b610422600480360381019061041d91906141ec565b6124d1565b005b60007f80ac58cd000000000000000000000000000000000000000000000000000000007bffffffffffffffffffffffffffffffffffffffffffffffffffffffff1916827bffffffffffffffffffffffffffffffffffffffffffffffffffffffff191614806104ef57507f5b5e139f000000000000000000000000000000000000000000000000000000007bffffffffffffffffffffffffffffffffffffffffffffffffffffffff1916827bffffffffffffffffffffffffffffffffffffffffffffffffffffffff1916145b806104ff57506104fe82612555565b5b9050919050565b60606000805461051590614f0e565b80601f016020809104026020016040519081016040528092919081815260200182805461054190614f0e565b801561058e5780601f106105635761010080835404028352916020019161058e565b820191906000526020600020905b81548152906001019060200180831161057157829003601f168201915b5050505050905090565b60006105a3826125bf565b6004600083815260200190815260200160002060009054906101000a900473ffffffffffffffffffffffffffffffffffffffff169050919050565b60006105e982611a0b565b90508073ffffffffffffffffffffffffffffffffffffffff168373ffffffffffffffffffffffffffffffffffffffff16141561065a576040517f08c379a000000000000000000000000000000000000000000000000000000000815260040161065190614c18565b60405180910390fd5b8073ffffffffffffffffffffffffffffffffffffffff1661067961260a565b73ffffffffffffffffffffffffffffffffffffffff1614806106a857506106a7816106a261260a565b61243d565b5b6106e7576040517f08c379a00000000000000000000000000000000000000000000000000000000081526004016106de90614c58565b60405180910390fd5b6106f18383612612565b505050565b6000600860008381526020019081526020016000206040518061010001604052908160008201805461072790614f0e565b80601f016020809104026020016040519081016040528092919081815260200182805461075390614f0e565b80156107a05780601f10610775576101008083540402835291602001916107a0565b820191906000526020600020905b81548152906001019060200180831161078357829003601f168201915b505050505081526020016001820180546107b990614f0e565b80601f01602080910402602001604051908101604052809291908181526020018280546107e590614f0e565b80156108325780601f1061080757610100808354040283529160200191610832565b820191906000526020600020905b81548152906001019060200180831161081557829003601f168201915b5050505050815260200160028201805461084b90614f0e565b80601f016020809104026020016040519081016040528092919081815260200182805461087790614f0e565b80156108c45780601f10610899576101008083540402835291602001916108c4565b820191906000526020600020905b8154815290600101906020018083116108a757829003601f168201915b5050505050815260200160038201805480602002602001604051908101604052809291908181526020016000905b8282101561099e57838290600052602060002001805461091190614f0e565b80601f016020809104026020016040519081016040528092919081815260200182805461093d90614f0e565b801561098a5780601f1061095f5761010080835404028352916020019161098a565b820191906000526020600020905b81548152906001019060200180831161096d57829003601f168201915b5050505050815260200190600101906108f2565b5050505081526020016004820160009054906101000a900460ff1660018111156109f1577f4e487b7100000000000000000000000000000000000000000000000000000000600052602160045260246000fd5b6001811115610a29577f4e487b7100000000000000000000000000000000000000000000000000000000600052602160045260246000fd5b8152602001600582018054610a3d90614f0e565b80601f0160208091040260200160405190810160405280929190818152602001828054610a6990614f0e565b8015610ab65780601f10610a8b57610100808354040283529160200191610ab6565b820191906000526020600020905b815481529060010190602001808311610a9957829003601f168201915b505050505081526020016006820160009054906101000a900460ff161515151581526020016006820160019054906101000a900460ff16151515158152505090508060c00151610b3b576040517f08c379a0000000000000000000000000000000000000000000000000000000008152600401610b3290614c38565b60405180910390fd5b610b7e81606001516040518060400160405280601081526020017f4e6f6e2d5472616e7366657261626c65000000000000000000000000000000008152506126cb565b15610bbe576040517f08c379a0000000000000000000000000000000000000000000000000000000008152600401610bb590614c78565b60405180910390fd5b610bc984848461275b565b50505050565b60006008600083815260200190815260200160002060405180610100016040529081600082018054610c0090614f0e565b80601f0160208091040260200160405190810160405280929190818152602001828054610c2c90614f0e565b8015610c795780601f10610c4e57610100808354040283529160200191610c79565b820191906000526020600020905b815481529060010190602001808311610c5c57829003601f168201915b50505050508152602001600182018054610c9290614f0e565b80601f0160208091040260200160405190810160405280929190818152602001828054610cbe90614f0e565b8015610d0b5780601f10610ce057610100808354040283529160200191610d0b565b820191906000526020600020905b815481529060010190602001808311610cee57829003601f168201915b50505050508152602001600282018054610d2490614f0e565b80601f0160208091040260200160405190810160405280929190818152602001828054610d5090614f0e565b8015610d9d5780601f10610d7257610100808354040283529160200191610d9d565b820191906000526020600020905b815481529060010190602001808311610d8057829003601f168201915b5050505050815260200160038201805480602002602001604051908101604052809291908181526020016000905b82821015610e77578382906000526020600020018054610dea90614f0e565b80601f0160208091040260200160405190810160405280929190818152602001828054610e1690614f0e565b8015610e635780601f10610e3857610100808354040283529160200191610e63565b820191906000526020600020905b815481529060010190602001808311610e4657829003601f168201915b505050505081526020019060010190610dcb565b5050505081526020016004820160009054906101000a900460ff166001811115610eca577f4e487b7100000000000000000000000000000000000000000000000000000000600052602160045260246000fd5b6001811115610f02577f4e487b7100000000000000000000000000000000000000000000000000000000600052602160045260246000fd5b8152602001600582018054610f1690614f0e565b80601f0160208091040260200160405190810160405280929190818152602001828054610f4290614f0e565b8015610f8f5780601f10610f6457610100808354040283529160200191610f8f565b820191906000526020600020905b815481529060010190602001808311610f7257829003601f168201915b505050505081526020016006820160009054906101000a900460ff161515151581526020016006820160019054906101000a900460ff16151515158152505090508060c00151611014576040517f08c379a000000000000000000000000000000000000000000000000000000000815260040161100b90614c38565b60405180910390fd5b61105781606001516040518060400160405280601081526020017f4e6f6e2d5472616e7366657261626c65000000000000000000000000000000008152506126cb565b15611097576040517f08c379a000000000000000000000000000000000000000000000000000000000815260040161108e90614c78565b60405180910390fd5b6110a28484846127bb565b50505050565b3373ffffffffffffffffffffffffffffffffffffffff166110c883611a0b565b73ffffffffffffffffffffffffffffffffffffffff161461111e576040517f08c379a000000000000000000000000000000000000000000000000000000000815260040161111590614bd8565b60405180910390fd5b6000600860008481526020019081526020016000209050600081600201805461114690614f0e565b80601f016020809104026020016040519081016040528092919081815260200182805461117290614f0e565b80156111bf5780601f10611194576101008083540402835291602001916111bf565b820191906000526020600020905b8154815290600101906020018083116111a257829003601f168201915b505050505090506112d882600301805480602002602001604051908101604052809291908181526020016000905b8282101561129957838290600052602060002001805461120c90614f0e565b80601f016020809104026020016040519081016040528092919081815260200182805461123890614f0e565b80156112855780601f1061125a57610100808354040283529160200191611285565b820191906000526020600020905b81548152906001019060200180831161126857829003601f168201915b5050505050815260200190600101906111ed565b505050506040518060400160405280600a81526020017f46756e6374696f6e616c000000000000000000000000000000000000000000008152506126cb565b1561154557600180811115611316577f4e487b7100000000000000000000000000000000000000000000000000000000600052602160045260246000fd5b83600181111561134f577f4e487b7100000000000000000000000000000000000000000000000000000000600052602160045260246000fd5b1415611458576000600960003373ffffffffffffffffffffffffffffffffffffffff1673ffffffffffffffffffffffffffffffffffffffff168152602001908152602001600020826040516113a4919061490e565b908152602001604051809103902054146113f3576040517f08c379a00000000000000000000000000000000000000000000000000000000081526004016113ea90614b18565b60405180910390fd5b83600960003373ffffffffffffffffffffffffffffffffffffffff1673ffffffffffffffffffffffffffffffffffffffff16815260200190815260200160002082604051611441919061490e565b908152602001604051809103902081905550611544565b600180811115611491577f4e487b7100000000000000000000000000000000000000000000000000000000600052602160045260246000fd5b8260040160009054906101000a900460ff1660018111156114db577f4e487b7100000000000000000000000000000000000000000000000000000000600052602160045260246000fd5b1415611543576000600960003373ffffffffffffffffffffffffffffffffffffffff1673ffffffffffffffffffffffffffffffffffffffff16815260200190815260200160002082604051611530919061490e565b9081526020016040518091039020819055505b5b5b828260040160006101000a81548160ff02191690836001811115611592577f4e487b7100000000000000000000000000000000000000000000000000000000600052602160045260246000fd5b021790555050505050565b6115a56127db565b6115e4856040518060400160405280600a81526020017f46756e6374696f6e616c000000000000000000000000000000000000000000008152506126cb565b801561165f5750600180811115611624577f4e487b7100000000000000000000000000000000000000000000000000000000600052602160045260246000fd5b84600181111561165d577f4e487b7100000000000000000000000000000000000000000000000000000000600052602160045260246000fd5b145b15611703576000600960008b73ffffffffffffffffffffffffffffffffffffffff1673ffffffffffffffffffffffffffffffffffffffff168152602001908152602001600020876040516116b3919061490e565b90815260200160405180910390205414611702576040517f08c379a00000000000000000000000000000000000000000000000000000000081526004016116f990614b18565b60405180910390fd5b5b600060075490506007600081548092919061171d90614f71565b91905055506040518061010001604052808a815260200189815260200188815260200187815260200186600181111561177f577f4e487b7100000000000000000000000000000000000000000000000000000000600052602160045260246000fd5b815260200185815260200184151581526020018315158152506008600083815260200190815260200160002060008201518160000190805190602001906117c7929190613eb0565b5060208201518160010190805190602001906117e4929190613eb0565b506040820151816002019080519060200190611801929190613eb0565b50606082015181600301908051906020019061181e929190613f36565b5060808201518160040160006101000a81548160ff02191690836001811115611870577f4e487b7100000000000000000000000000000000000000000000000000000000600052602160045260246000fd5b021790555060a0820151816005019080519060200190611891929190613eb0565b5060c08201518160060160006101000a81548160ff02191690831515021790555060e08201518160060160016101000a81548160ff0219169083151502179055509050506118df8a82612859565b61191e866040518060400160405280600a81526020017f46756e6374696f6e616c000000000000000000000000000000000000000000008152506126cb565b8015611999575060018081111561195e577f4e487b7100000000000000000000000000000000000000000000000000000000600052602160045260246000fd5b856001811115611997577f4e487b7100000000000000000000000000000000000000000000000000000000600052602160045260246000fd5b145b156119ff5780600960008c73ffffffffffffffffffffffffffffffffffffffff1673ffffffffffffffffffffffffffffffffffffffff168152602001908152602001600020886040516119ec919061490e565b9081526020016040518091039020819055505b50505050505050505050565b600080611a1783612877565b9050600073ffffffffffffffffffffffffffffffffffffffff168173ffffffffffffffffffffffffffffffffffffffff161415611a89576040517f08c379a0000000000000000000000000000000000000000000000000000000008152600401611a8090614bf8565b60405180910390fd5b80915050919050565b60008073ffffffffffffffffffffffffffffffffffffffff168273ffffffffffffffffffffffffffffffffffffffff161415611b03576040517f08c379a0000000000000000000000000000000000000000000000000000000008152600401611afa90614b78565b60405180910390fd5b600360008373ffffffffffffffffffffffffffffffffffffffff1673ffffffffffffffffffffffffffffffffffffffff168152602001908152602001600020549050919050565b611b526127db565b611b5c60006128b4565b565b60075481565b600960205281600052604060002081805160208101820180518482526020830160208501208183528095505050505050600091509150505481565b6000600660009054906101000a900473ffffffffffffffffffffffffffffffffffffffff16905090565b606060018054611bd890614f0e565b80601f0160208091040260200160405190810160405280929190818152602001828054611c0490614f0e565b8015611c515780601f10611c2657610100808354040283529160200191611c51565b820191906000526020600020905b815481529060010190602001808311611c3457829003601f168201915b5050505050905090565b611c6d611c6661260a565b838361297a565b5050565b60006008600084815260200190815260200160002060405180610100016040529081600082018054611ca290614f0e565b80601f0160208091040260200160405190810160405280929190818152602001828054611cce90614f0e565b8015611d1b5780601f10611cf057610100808354040283529160200191611d1b565b820191906000526020600020905b815481529060010190602001808311611cfe57829003601f168201915b50505050508152602001600182018054611d3490614f0e565b80601f0160208091040260200160405190810160405280929190818152602001828054611d6090614f0e565b8015611dad5780601f10611d8257610100808354040283529160200191611dad565b820191906000526020600020905b815481529060010190602001808311611d9057829003601f168201915b50505050508152602001600282018054611dc690614f0e565b80601f0160208091040260200160405190810160405280929190818152602001828054611df290614f0e565b8015611e3f5780601f10611e1457610100808354040283529160200191611e3f565b820191906000526020600020905b815481529060010190602001808311611e2257829003601f168201915b5050505050815260200160038201805480602002602001604051908101604052809291908181526020016000905b82821015611f19578382906000526020600020018054611e8c90614f0e565b80601f0160208091040260200160405190810160405280929190818152602001828054611eb890614f0e565b8015611f055780601f10611eda57610100808354040283529160200191611f05565b820191906000526020600020905b815481529060010190602001808311611ee857829003601f168201915b505050505081526020019060010190611e6d565b5050505081526020016004820160009054906101000a900460ff166001811115611f6c577f4e487b7100000000000000000000000000000000000000000000000000000000600052602160045260246000fd5b6001811115611fa4577f4e487b7100000000000000000000000000000000000000000000000000000000600052602160045260246000fd5b8152602001600582018054611fb890614f0e565b80601f0160208091040260200160405190810160405280929190818152602001828054611fe490614f0e565b80156120315780601f1061200657610100808354040283529160200191612031565b820191906000526020600020905b81548152906001019060200180831161201457829003601f168201915b505050505081526020016006820160009054906101000a900460ff161515151581526020016006820160019054906101000a900460ff16151515158152505090508060c001516120b6576040517f08c379a00000000000000000000000000000000000000000000000000000000081526004016120ad90614c38565b60405180910390fd5b6120f981606001516040518060400160405280601081526020017f4e6f6e2d5472616e7366657261626c65000000000000000000000000000000008152506126cb565b15612139576040517f08c379a000000000000000000000000000000000000000000000000000000000815260040161213090614c78565b60405180910390fd5b61214585858585612ae7565b5050505050565b6060612157826125bf565b6000612161612b49565b9050600081511161218157604051806020016040528060008152506121ac565b8061218b84612b60565b60405160200161219c929190614925565b6040516020818303038152906040525b915050919050565b60086020528060005260406000206000915090508060000180546121d790614f0e565b80601f016020809104026020016040519081016040528092919081815260200182805461220390614f0e565b80156122505780601f1061222557610100808354040283529160200191612250565b820191906000526020600020905b81548152906001019060200180831161223357829003601f168201915b50505050509080600101805461226590614f0e565b80601f016020809104026020016040519081016040528092919081815260200182805461229190614f0e565b80156122de5780601f106122b3576101008083540402835291602001916122de565b820191906000526020600020905b8154815290600101906020018083116122c157829003601f168201915b5050505050908060020180546122f390614f0e565b80601f016020809104026020016040519081016040528092919081815260200182805461231f90614f0e565b801561236c5780601f106123415761010080835404028352916020019161236c565b820191906000526020600020905b81548152906001019060200180831161234f57829003601f168201915b5050505050908060040160009054906101000a900460ff169080600501805461239490614f0e565b80601f01602080910402602001604051908101604052809291908181526020018280546123c090614f0e565b801561240d5780601f106123e25761010080835404028352916020019161240d565b820191906000526020600020905b8154815290600101906020018083116123f057829003601f168201915b5050505050908060060160009054906101000a900460ff16908060060160019054906101000a900460ff16905087565b6000600560008473ffffffffffffffffffffffffffffffffffffffff1673ffffffffffffffffffffffffffffffffffffffff16815260200190815260200160002060008373ffffffffffffffffffffffffffffffffffffffff1673ffffffffffffffffffffffffffffffffffffffff16815260200190815260200160002060009054906101000a900460ff16905092915050565b6124d96127db565b600073ffffffffffffffffffffffffffffffffffffffff168173ffffffffffffffffffffffffffffffffffffffff161415612549576040517f08c379a000000000000000000000000000000000000000000000000000000000815260040161254090614ab8565b60405180910390fd5b612552816128b4565b50565b60007f01ffc9a7000000000000000000000000000000000000000000000000000000007bffffffffffffffffffffffffffffffffffffffffffffffffffffffff1916827bffffffffffffffffffffffffffffffffffffffffffffffffffffffff1916149050919050565b6125c881612c84565b612607576040517f08c379a00000000000000000000000000000000000000000000000000000000081526004016125fe90614bf8565b60405180910390fd5b50565b600033905090565b816004600083815260200190815260200160002060006101000a81548173ffffffffffffffffffffffffffffffffffffffff021916908373ffffffffffffffffffffffffffffffffffffffff160217905550808273ffffffffffffffffffffffffffffffffffffffff1661268583611a0b565b73ffffffffffffffffffffffffffffffffffffffff167f8c5be1e5ebec7d5bd14f71427d1e84f3dd0314c0f7b2291e5b200ac8c7c3b92560405160405180910390a45050565b600080600090505b835181101561274f57828051906020012084828151811061271d577f4e487b7100000000000000000000000000000000000000000000000000000000600052603260045260246000fd5b602002602001015180519060200120141561273c576001915050612755565b808061274790614f71565b9150506126d3565b50600090505b92915050565b61276c61276661260a565b82612cc5565b6127ab576040517f08c379a00000000000000000000000000000000000000000000000000000000081526004016127a290614a78565b60405180910390fd5b6127b6838383612d5a565b505050565b6127d683838360405180602001604052806000815250611c71565b505050565b6127e361260a565b73ffffffffffffffffffffffffffffffffffffffff16612801611b9f565b73ffffffffffffffffffffffffffffffffffffffff1614612857576040517f08c379a000000000000000000000000000000000000000000000000000000000815260040161284e90614bb8565b60405180910390fd5b565b6128738282604051806020016040528060008152506133c4565b5050565b60006002600083815260200190815260200160002060009054906101000a900473ffffffffffffffffffffffffffffffffffffffff169050919050565b6000600660009054906101000a900473ffffffffffffffffffffffffffffffffffffffff16905081600660006101000a81548173ffffffffffffffffffffffffffffffffffffffff021916908373ffffffffffffffffffffffffffffffffffffffff1602179055508173ffffffffffffffffffffffffffffffffffffffff168173ffffffffffffffffffffffffffffffffffffffff167f8be0079c531659141344cd1fd0a4f28419497f9722a3daafe3b4186f6b6457e060405160405180910390a35050565b8173ffffffffffffffffffffffffffffffffffffffff168373ffffffffffffffffffffffffffffffffffffffff1614156129e9576040517f08c379a00000000000000000000000000000000000000000000000000000000081526004016129e090614b58565b60405180910390fd5b80600560008573ffffffffffffffffffffffffffffffffffffffff1673ffffffffffffffffffffffffffffffffffffffff16815260200190815260200160002060008473ffffffffffffffffffffffffffffffffffffffff1673ffffffffffffffffffffffffffffffffffffffff16815260200190815260200160002060006101000a81548160ff0219169083151502179055508173ffffffffffffffffffffffffffffffffffffffff168373ffffffffffffffffffffffffffffffffffffffff167f17307eab39ab6107e8899845ad3d59bd9653f200f220920489ca2b5937696c3183604051612ada91906149b0565b60405180910390a3505050565b612af8612af261260a565b83612cc5565b612b37576040517f08c379a0000000000000000000000000000000000000000000000000000000008152600401612b2e90614a78565b60405180910390fd5b612b438484848461341f565b50505050565b606060405180602001604052806000815250905090565b606060006001612b6f8461347b565b01905060008167ffffffffffffffff811115612bb4577f4e487b7100000000000000000000000000000000000000000000000000000000600052604160045260246000fd5b6040519080825280601f01601f191660200182016040528015612be65781602001600182028036833780820191505090505b509050600082602001820190505b600115612c79578080600190039150507f3031323334353637383961626364656600000000000000000000000000000000600a86061a8153600a8581612c63577f4e487b7100000000000000000000000000000000000000000000000000000000600052601260045260246000fd5b0494506000851415612c7457612c79565b612bf4565b819350505050919050565b60008073ffffffffffffffffffffffffffffffffffffffff16612ca683612877565b73ffffffffffffffffffffffffffffffffffffffff1614159050919050565b600080612cd183611a0b565b90508073ffffffffffffffffffffffffffffffffffffffff168473ffffffffffffffffffffffffffffffffffffffff161480612d135750612d12818561243d565b5b80612d5157508373ffffffffffffffffffffffffffffffffffffffff16612d3984610598565b73ffffffffffffffffffffffffffffffffffffffff16145b91505092915050565b60006008600083815260200190815260200160002060405180610100016040529081600082018054612d8b90614f0e565b80601f0160208091040260200160405190810160405280929190818152602001828054612db790614f0e565b8015612e045780601f10612dd957610100808354040283529160200191612e04565b820191906000526020600020905b815481529060010190602001808311612de757829003601f168201915b50505050508152602001600182018054612e1d90614f0e565b80601f0160208091040260200160405190810160405280929190818152602001828054612e4990614f0e565b8015612e965780601f10612e6b57610100808354040283529160200191612e96565b820191906000526020600020905b815481529060010190602001808311612e7957829003601f168201915b50505050508152602001600282018054612eaf90614f0e565b80601f0160208091040260200160405190810160405280929190818152602001828054612edb90614f0e565b8015612f285780601f10612efd57610100808354040283529160200191612f28565b820191906000526020600020905b815481529060010190602001808311612f0b57829003601f168201915b5050505050815260200160038201805480602002602001604051908101604052809291908181526020016000905b82821015613002578382906000526020600020018054612f7590614f0e565b80601f0160208091040260200160405190810160405280929190818152602001828054612fa190614f0e565b8015612fee5780601f10612fc357610100808354040283529160200191612fee565b820191906000526020600020905b815481529060010190602001808311612fd157829003601f168201915b505050505081526020019060010190612f56565b5050505081526020016004820160009054906101000a900460ff166001811115613055577f4e487b7100000000000000000000000000000000000000000000000000000000600052602160045260246000fd5b600181111561308d577f4e487b7100000000000000000000000000000000000000000000000000000000600052602160045260246000fd5b81526020016005820180546130a190614f0e565b80601f01602080910402602001604051908101604052809291908181526020018280546130cd90614f0e565b801561311a5780601f106130ef5761010080835404028352916020019161311a565b820191906000526020600020905b8154815290600101906020018083116130fd57829003601f168201915b505050505081526020016006820160009054906101000a900460ff161515151581526020016006820160019054906101000a900460ff16151515158152505090508060c0015161319f576040517f08c379a000000000000000000000000000000000000000000000000000000000815260040161319690614c38565b60405180910390fd5b6131e281606001516040518060400160405280601081526020017f4e6f6e2d5472616e7366657261626c65000000000000000000000000000000008152506126cb565b15613222576040517f08c379a000000000000000000000000000000000000000000000000000000000815260040161321990614c78565b60405180910390fd5b61322d8484846136b2565b61327081606001516040518060400160405280600a81526020017f46756e6374696f6e616c000000000000000000000000000000000000000000008152506126cb565b80156132ef57506001808111156132b0577f4e487b7100000000000000000000000000000000000000000000000000000000600052602160045260246000fd5b816080015160018111156132ed577f4e487b7100000000000000000000000000000000000000000000000000000000600052602160045260246000fd5b145b156133be576000600960008673ffffffffffffffffffffffffffffffffffffffff1673ffffffffffffffffffffffffffffffffffffffff1681526020019081526020016000208260400151604051613347919061490e565b90815260200160405180910390208190555081600960008573ffffffffffffffffffffffffffffffffffffffff1673ffffffffffffffffffffffffffffffffffffffff16815260200190815260200160002082604001516040516133ab919061490e565b9081526020016040518091039020819055505b50505050565b6133ce83836139ac565b6133db6000848484613bca565b61341a576040517f08c379a000000000000000000000000000000000000000000000000000000000815260040161341190614a98565b60405180910390fd5b505050565b61342a848484612d5a565b61343684848484613bca565b613475576040517f08c379a000000000000000000000000000000000000000000000000000000000815260040161346c90614a98565b60405180910390fd5b50505050565b600080600090507a184f03e93ff9f4daa797ed6e38ed64bf6a1f01000000000000000083106134ff577a184f03e93ff9f4daa797ed6e38ed64bf6a1f01000000000000000083816134f5577f4e487b7100000000000000000000000000000000000000000000000000000000600052601260045260246000fd5b0492506040810190505b6d04ee2d6d415b85acef81000000008310613562576d04ee2d6d415b85acef81000000008381613558577f4e487b7100000000000000000000000000000000000000000000000000000000600052601260045260246000fd5b0492506020810190505b662386f26fc1000083106135b757662386f26fc1000083816135ad577f4e487b7100000000000000000000000000000000000000000000000000000000600052601260045260246000fd5b0492506010810190505b6305f5e1008310613606576305f5e10083816135fc577f4e487b7100000000000000000000000000000000000000000000000000000000600052601260045260246000fd5b0492506008810190505b6127108310613651576127108381613647577f4e487b7100000000000000000000000000000000000000000000000000000000600052601260045260246000fd5b0492506004810190505b6064831061369a5760648381613690577f4e487b7100000000000000000000000000000000000000000000000000000000600052601260045260246000fd5b0492506002810190505b600a83106136a9576001810190505b80915050919050565b8273ffffffffffffffffffffffffffffffffffffffff166136d282611a0b565b73ffffffffffffffffffffffffffffffffffffffff1614613728576040517f08c379a000000000000000000000000000000000000000000000000000000000815260040161371f90614ad8565b60405180910390fd5b600073ffffffffffffffffffffffffffffffffffffffff168273ffffffffffffffffffffffffffffffffffffffff161415613798576040517f08c379a000000000000000000000000000000000000000000000000000000000815260040161378f90614b38565b60405180910390fd5b6137a58383836001613d61565b8273ffffffffffffffffffffffffffffffffffffffff166137c582611a0b565b73ffffffffffffffffffffffffffffffffffffffff161461381b576040517f08c379a000000000000000000000000000000000000000000000000000000000815260040161381290614ad8565b60405180910390fd5b6004600082815260200190815260200160002060006101000a81549073ffffffffffffffffffffffffffffffffffffffff02191690556001600360008573ffffffffffffffffffffffffffffffffffffffff1673ffffffffffffffffffffffffffffffffffffffff168152602001908152602001600020600082825403925050819055506001600360008473ffffffffffffffffffffffffffffffffffffffff1673ffffffffffffffffffffffffffffffffffffffff16815260200190815260200160002060008282540192505081905550816002600083815260200190815260200160002060006101000a81548173ffffffffffffffffffffffffffffffffffffffff021916908373ffffffffffffffffffffffffffffffffffffffff160217905550808273ffffffffffffffffffffffffffffffffffffffff168473ffffffffffffffffffffffffffffffffffffffff167fddf252ad1be2c89b69c2b068fc378daa952ba7f163c4a11628f55a4df523b3ef60405160405180910390a46139a78383836001613e87565b505050565b600073ffffffffffffffffffffffffffffffffffffffff168273ffffffffffffffffffffffffffffffffffffffff161415613a1c576040517f08c379a0000000000000000000000000000000000000000000000000000000008152600401613a1390614b98565b60405180910390fd5b613a2581612c84565b15613a65576040517f08c379a0000000000000000000000000000000000000000000000000000000008152600401613a5c90614af8565b60405180910390fd5b613a73600083836001613d61565b613a7c81612c84565b15613abc576040517f08c379a0000000000000000000000000000000000000000000000000000000008152600401613ab390614af8565b60405180910390fd5b6001600360008473ffffffffffffffffffffffffffffffffffffffff1673ffffffffffffffffffffffffffffffffffffffff16815260200190815260200160002060008282540192505081905550816002600083815260200190815260200160002060006101000a81548173ffffffffffffffffffffffffffffffffffffffff021916908373ffffffffffffffffffffffffffffffffffffffff160217905550808273ffffffffffffffffffffffffffffffffffffffff16600073ffffffffffffffffffffffffffffffffffffffff167fddf252ad1be2c89b69c2b068fc378daa952ba7f163c4a11628f55a4df523b3ef60405160405180910390a4613bc6600083836001613e87565b5050565b6000613beb8473ffffffffffffffffffffffffffffffffffffffff16613e8d565b15613d54578373ffffffffffffffffffffffffffffffffffffffff1663150b7a02613c1461260a565b8786866040518563ffffffff1660e01b8152600401613c369493929190614964565b602060405180830381600087803b158015613c5057600080fd5b505af1925050508015613c8157506040513d601f19601f82011682018060405250810190613c7e919061454e565b60015b613d04573d8060008114613cb1576040519150601f19603f3d011682016040523d82523d6000602084013e613cb6565b606091505b50600081511415613cfc576040517f08c379a0000000000000000000000000000000000000000000000000000000008152600401613cf390614a98565b60405180910390fd5b805181602001fd5b63150b7a0260e01b7bffffffffffffffffffffffffffffffffffffffffffffffffffffffff1916817bffffffffffffffffffffffffffffffffffffffffffffffffffffffff191614915050613d59565b600190505b949350505050565b6001811115613e8157600073ffffffffffffffffffffffffffffffffffffffff168473ffffffffffffffffffffffffffffffffffffffff1614613df55780600360008673ffffffffffffffffffffffffffffffffffffffff1673ffffffffffffffffffffffffffffffffffffffff1681526020019081526020016000206000828254613ded9190614dff565b925050819055505b600073ffffffffffffffffffffffffffffffffffffffff168373ffffffffffffffffffffffffffffffffffffffff1614613e805780600360008573ffffffffffffffffffffffffffffffffffffffff1673ffffffffffffffffffffffffffffffffffffffff1681526020019081526020016000206000828254613e789190614da9565b925050819055505b5b50505050565b50505050565b6000808273ffffffffffffffffffffffffffffffffffffffff163b119050919050565b828054613ebc90614f0e565b90600052602060002090601f016020900481019282613ede5760008555613f25565b82601f10613ef757805160ff1916838001178555613f25565b82800160010185558215613f25579182015b82811115613f24578251825591602001919060010190613f09565b5b509050613f329190613f96565b5090565b828054828255906000526020600020908101928215613f85579160200282015b82811115613f84578251829080519060200190613f74929190613eb0565b5091602001919060010190613f56565b5b509050613f929190613fb3565b5090565b5b80821115613faf576000816000905550600101613f97565b5090565b5b80821115613fd35760008181613fca9190613fd7565b50600101613fb4565b5090565b508054613fe390614f0e565b6000825580601f10613ff55750614014565b601f0160209004906000526020600020908101906140139190613f96565b5b50565b600061402a61402584614cd8565b614cb3565b9050808382526020820190508260005b8581101561406a578135850161405088826141ad565b84526020840193506020830192505060018101905061403a565b5050509392505050565b600061408761408284614d04565b614cb3565b90508281526020810184848401111561409f57600080fd5b6140aa848285614ecc565b509392505050565b60006140c56140c084614d35565b614cb3565b9050828152602081018484840111156140dd57600080fd5b6140e8848285614ecc565b509392505050565b6000813590506140ff8161551c565b92915050565b600082601f83011261411657600080fd5b8135614126848260208601614017565b91505092915050565b60008135905061413e81615533565b92915050565b6000813590506141538161554a565b92915050565b6000815190506141688161554a565b92915050565b600082601f83011261417f57600080fd5b813561418f848260208601614074565b91505092915050565b6000813590506141a781615561565b92915050565b600082601f8301126141be57600080fd5b81356141ce8482602086016140b2565b91505092915050565b6000813590506141e681615571565b92915050565b6000602082840312156141fe57600080fd5b600061420c848285016140f0565b91505092915050565b6000806040838503121561422857600080fd5b6000614236858286016140f0565b9250506020614247858286016140f0565b9150509250929050565b60008060006060848603121561426657600080fd5b6000614274868287016140f0565b9350506020614285868287016140f0565b9250506040614296868287016141d7565b9150509250925092565b600080600080608085870312156142b657600080fd5b60006142c4878288016140f0565b94505060206142d5878288016140f0565b93505060406142e6878288016141d7565b925050606085013567ffffffffffffffff81111561430357600080fd5b61430f8782880161416e565b91505092959194509250565b6000806040838503121561432e57600080fd5b600061433c858286016140f0565b925050602061434d8582860161412f565b9150509250929050565b6000806040838503121561436a57600080fd5b6000614378858286016140f0565b925050602083013567ffffffffffffffff81111561439557600080fd5b6143a1858286016141ad565b9150509250929050565b60008060008060008060008060006101208a8c0312156143ca57600080fd5b60006143d88c828d016140f0565b99505060208a013567ffffffffffffffff8111156143f557600080fd5b6144018c828d016141ad565b98505060408a013567ffffffffffffffff81111561441e57600080fd5b61442a8c828d016141ad565b97505060608a013567ffffffffffffffff81111561444757600080fd5b6144538c828d016141ad565b96505060808a013567ffffffffffffffff81111561447057600080fd5b61447c8c828d01614105565b95505060a061448d8c828d01614198565b94505060c08a013567ffffffffffffffff8111156144aa57600080fd5b6144b68c828d016141ad565b93505060e06144c78c828d0161412f565b9250506101006144d98c828d0161412f565b9150509295985092959850929598565b600080604083850312156144fc57600080fd5b600061450a858286016140f0565b925050602061451b858286016141d7565b9150509250929050565b60006020828403121561453757600080fd5b600061454584828501614144565b91505092915050565b60006020828403121561456057600080fd5b600061456e84828501614159565b91505092915050565b60006020828403121561458957600080fd5b6000614597848285016141d7565b91505092915050565b600080604083850312156145b357600080fd5b60006145c1858286016141d7565b92505060206145d285828601614198565b9150509250929050565b6145e581614e33565b82525050565b6145f481614e45565b82525050565b600061460582614d66565b61460f8185614d7c565b935061461f818560208601614edb565b61462881615076565b840191505092915050565b61463c81614eba565b82525050565b600061464d82614d71565b6146578185614d8d565b9350614667818560208601614edb565b61467081615076565b840191505092915050565b600061468682614d71565b6146908185614d9e565b93506146a0818560208601614edb565b80840191505092915050565b60006146b9602d83614d8d565b91506146c482615087565b604082019050919050565b60006146dc603283614d8d565b91506146e7826150d6565b604082019050919050565b60006146ff602683614d8d565b915061470a82615125565b604082019050919050565b6000614722602583614d8d565b915061472d82615174565b604082019050919050565b6000614745601c83614d8d565b9150614750826151c3565b602082019050919050565b6000614768603983614d8d565b9150614773826151ec565b604082019050919050565b600061478b602483614d8d565b91506147968261523b565b604082019050919050565b60006147ae601983614d8d565b91506147b98261528a565b602082019050919050565b60006147d1602983614d8d565b91506147dc826152b3565b604082019050919050565b60006147f4602083614d8d565b91506147ff82615302565b602082019050919050565b6000614817602083614d8d565b91506148228261532b565b602082019050919050565b600061483a602483614d8d565b915061484582615354565b604082019050919050565b600061485d601883614d8d565b9150614868826153a3565b602082019050919050565b6000614880602183614d8d565b915061488b826153cc565b604082019050919050565b60006148a3601f83614d8d565b91506148ae8261541b565b602082019050919050565b60006148c6603d83614d8d565b91506148d182615444565b604082019050919050565b60006148e9604383614d8d565b91506148f482615493565b606082019050919050565b61490881614eb0565b82525050565b600061491a828461467b565b915081905092915050565b6000614931828561467b565b915061493d828461467b565b91508190509392505050565b600060208201905061495e60008301846145dc565b92915050565b600060808201905061497960008301876145dc565b61498660208301866145dc565b61499360408301856148ff565b81810360608301526149a581846145fa565b905095945050505050565b60006020820190506149c560008301846145eb565b92915050565b600060208201905081810360008301526149e58184614642565b905092915050565b600060e0820190508181036000830152614a07818a614642565b90508181036020830152614a1b8189614642565b90508181036040830152614a2f8188614642565b9050614a3e6060830187614633565b8181036080830152614a508186614642565b9050614a5f60a08301856145eb565b614a6c60c08301846145eb565b98975050505050505050565b60006020820190508181036000830152614a91816146ac565b9050919050565b60006020820190508181036000830152614ab1816146cf565b9050919050565b60006020820190508181036000830152614ad1816146f2565b9050919050565b60006020820190508181036000830152614af181614715565b9050919050565b60006020820190508181036000830152614b1181614738565b9050919050565b60006020820190508181036000830152614b318161475b565b9050919050565b60006020820190508181036000830152614b518161477e565b9050919050565b60006020820190508181036000830152614b71816147a1565b9050919050565b60006020820190508181036000830152614b91816147c4565b9050919050565b60006020820190508181036000830152614bb1816147e7565b9050919050565b60006020820190508181036000830152614bd18161480a565b9050919050565b60006020820190508181036000830152614bf18161482d565b9050919050565b60006020820190508181036000830152614c1181614850565b9050919050565b60006020820190508181036000830152614c3181614873565b9050919050565b60006020820190508181036000830152614c5181614896565b9050919050565b60006020820190508181036000830152614c71816148b9565b9050919050565b60006020820190508181036000830152614c91816148dc565b9050919050565b6000602082019050614cad60008301846148ff565b92915050565b6000614cbd614cce565b9050614cc98282614f40565b919050565b6000604051905090565b600067ffffffffffffffff821115614cf357614cf2615047565b5b602082029050602081019050919050565b600067ffffffffffffffff821115614d1f57614d1e615047565b5b614d2882615076565b9050602081019050919050565b600067ffffffffffffffff821115614d5057614d4f615047565b5b614d5982615076565b9050602081019050919050565b600081519050919050565b600081519050919050565b600082825260208201905092915050565b600082825260208201905092915050565b600081905092915050565b6000614db482614eb0565b9150614dbf83614eb0565b9250827fffffffffffffffffffffffffffffffffffffffffffffffffffffffffffffffff03821115614df457614df3614fba565b5b828201905092915050565b6000614e0a82614eb0565b9150614e1583614eb0565b925082821015614e2857614e27614fba565b5b828203905092915050565b6000614e3e82614e90565b9050919050565b60008115159050919050565b60007fffffffff0000000000000000000000000000000000000000000000000000000082169050919050565b6000819050614e8b82615508565b919050565b600073ffffffffffffffffffffffffffffffffffffffff82169050919050565b6000819050919050565b6000614ec582614e7d565b9050919050565b82818337600083830152505050565b60005b83811015614ef9578082015181840152602081019050614ede565b83811115614f08576000848401525b50505050565b60006002820490506001821680614f2657607f821691505b60208210811415614f3a57614f39615018565b5b50919050565b614f4982615076565b810181811067ffffffffffffffff82111715614f6857614f67615047565b5b80604052505050565b6000614f7c82614eb0565b91507fffffffffffffffffffffffffffffffffffffffffffffffffffffffffffffffff821415614faf57614fae614fba565b5b600182019050919050565b7f4e487b7100000000000000000000000000000000000000000000000000000000600052601160045260246000fd5b7f4e487b7100000000000000000000000000000000000000000000000000000000600052602160045260246000fd5b7f4e487b7100000000000000000000000000000000000000000000000000000000600052602260045260246000fd5b7f4e487b7100000000000000000000000000000000000000000000000000000000600052604160045260246000fd5b6000601f19601f8301169050919050565b7f4552433732313a2063616c6c6572206973206e6f7420746f6b656e206f776e6560008201527f72206f7220617070726f76656400000000000000000000000000000000000000602082015250565b7f4552433732313a207472616e7366657220746f206e6f6e20455243373231526560008201527f63656976657220696d706c656d656e7465720000000000000000000000000000602082015250565b7f4f776e61626c653a206e6577206f776e657220697320746865207a65726f206160008201527f6464726573730000000000000000000000000000000000000000000000000000602082015250565b7f4552433732313a207472616e736665722066726f6d20696e636f72726563742060008201527f6f776e6572000000000000000000000000000000000000000000000000000000602082015250565b7f4552433732313a20746f6b656e20616c7265616479206d696e74656400000000600082015250565b7f4f776e657220616c72656164792068617320616e206163746976652066756e6360008201527f74696f6e616c206173736574206f662074686973207479706500000000000000602082015250565b7f4552433732313a207472616e7366657220746f20746865207a65726f2061646460008201527f7265737300000000000000000000000000000000000000000000000000000000602082015250565b7f4552433732313a20617070726f766520746f2063616c6c657200000000000000600082015250565b7f4552433732313a2061646472657373207a65726f206973206e6f74206120766160008201527f6c6964206f776e65720000000000000000000000000000000000000000000000602082015250565b7f4552433732313a206d696e7420746f20746865207a65726f2061646472657373600082015250565b7f4f776e61626c653a2063616c6c6572206973206e6f7420746865206f776e6572600082015250565b7f4f6e6c7920746865206f776e65722063616e207570646174652074686520737460008201527f6174757300000000000000000000000000000000000000000000000000000000602082015250565b7f4552433732313a20696e76616c696420746f6b656e2049440000000000000000600082015250565b7f4552433732313a20617070726f76616c20746f2063757272656e74206f776e6560008201527f7200000000000000000000000000000000000000000000000000000000000000602082015250565b7f54686973206173736574206973206e6f6e2d7472616e7366657261626c652e00600082015250565b7f4552433732313a20617070726f76652063616c6c6572206973206e6f7420746f60008201527f6b656e206f776e6572206f7220617070726f76656420666f7220616c6c000000602082015250565b7f536f756c626f756e6420746f6b656e3a207472616e73666572206e6f7420616c60008201527f6c6f77656420666f72204e6f6e2d5472616e7366657261626c6520636174656760208201527f6f72790000000000000000000000000000000000000000000000000000000000604082015250565b6002811061551957615518614fe9565b5b50565b61552581614e33565b811461553057600080fd5b50565b61553c81614e45565b811461554757600080fd5b50565b61555381614e51565b811461555e57600080fd5b50565b6002811061556e57600080fd5b50565b61557a81614eb0565b811461558557600080fd5b5056fea2646970667358221220d2f36ba8203ce10dbfae824da976ddb928bfa8db42c0bfa08c15f3dd1d1c381564736f6c63430008010033",
  "immutableReferences": {},
  "source": "// SPDX-License-Identifier: MIT\r\npragma solidity ^0.8.1;\r\n\r\nimport \"@openzeppelin/contracts/token/ERC721/ERC721.sol\";\r\nimport \"@openzeppelin/contracts/access/Ownable.sol\";\r\n\r\ncontract AssetManager is ERC721, Ownable {\r\n    uint256 public nextTokenId;\r\n\r\n    enum Status { Inactive, Active }\r\n\r\n    struct Asset {\r\n        string assetIdentifier;\r\n        string assetIssuer;\r\n        string assetType;\r\n        string[] categories; // Array to hold multiple categories\r\n        Status status;\r\n        string issuerType;\r\n        bool isTransferable;\r\n        bool isFunctional;\r\n    }\r\n\r\n    mapping(uint256 => Asset) public assets;\r\n    mapping(address => mapping(string => uint256)) public activeFunctionalAssets;\r\n\r\n    constructor() ERC721(\"AssetManager\", \"ASM\") Ownable() {}\r\n\r\n    // Function to issue a new asset\r\n    function issueAsset(\r\n        address to,\r\n        string memory assetIdentifier,\r\n        string memory assetIssuer,\r\n        string memory assetType,\r\n        string[] memory categories,\r\n        Status status,\r\n        string memory issuerType,\r\n        bool isTransferable,\r\n        bool isFunctional\r\n    ) external onlyOwner {\r\n        // Check if the asset has the \"Functional\" category and is active\r\n        if (hasCategory(categories, \"Functional\") && status == Status.Active) {\r\n            require(activeFunctionalAssets[to][assetType] == 0, \"Owner already has an active functional asset of this type\");\r\n        }\r\n\r\n        uint256 tokenId = nextTokenId;\r\n        nextTokenId++;\r\n\r\n        assets[tokenId] = Asset({\r\n            assetIdentifier: assetIdentifier,\r\n            assetIssuer: assetIssuer,\r\n            assetType: assetType,\r\n            categories: categories, // Assign the array of categories\r\n            status: status,\r\n            issuerType: issuerType,\r\n            isTransferable: isTransferable,\r\n            isFunctional: isFunctional\r\n        });\r\n\r\n        _safeMint(to, tokenId);\r\n\r\n        if (hasCategory(categories, \"Functional\") && status == Status.Active) {\r\n            activeFunctionalAssets[to][assetType] = tokenId;\r\n        }\r\n    }\r\n\r\n    function updateAssetStatus(uint256 tokenId, Status status) external {\r\n        require(ownerOf(tokenId) == msg.sender, \"Only the owner can update the status\");\r\n\r\n        Asset storage asset = assets[tokenId];\r\n        string memory assetType = asset.assetType;\r\n\r\n        if (hasCategory(asset.categories, \"Functional\")) {\r\n            if (status == Status.Active) {\r\n                require(activeFunctionalAssets[msg.sender][assetType] == 0, \"Owner already has an active functional asset of this type\");\r\n                activeFunctionalAssets[msg.sender][assetType] = tokenId;\r\n            } else {\r\n                if (asset.status == Status.Active) {\r\n                    activeFunctionalAssets[msg.sender][assetType] = 0;\r\n                }\r\n            }\r\n        }\r\n\r\n        asset.status = status;\r\n    }\r\n\r\n    function _transfer(\r\n        address from,\r\n        address to,\r\n        uint256 tokenId\r\n    ) internal virtual override {\r\n        Asset memory asset = assets[tokenId];\r\n        require(asset.isTransferable, \"This asset is non-transferable.\");\r\n        require(!hasCategory(asset.categories, \"Non-Transferable\"), \"Soulbound token: transfer not allowed for Non-Transferable category\");\r\n\r\n        super._transfer(from, to, tokenId);\r\n\r\n        if (hasCategory(asset.categories, \"Functional\") && asset.status == Status.Active) {\r\n            activeFunctionalAssets[from][asset.assetType] = 0;\r\n            activeFunctionalAssets[to][asset.assetType] = tokenId;\r\n        }\r\n    }\r\n\r\n    function safeTransferFrom(\r\n        address from,\r\n        address to,\r\n        uint256 tokenId,\r\n        bytes memory _data\r\n    ) public virtual override {\r\n        Asset memory asset = assets[tokenId];\r\n        require(asset.isTransferable, \"This asset is non-transferable.\");\r\n        require(!hasCategory(asset.categories, \"Non-Transferable\"), \"Soulbound token: transfer not allowed for Non-Transferable category\");\r\n\r\n        super.safeTransferFrom(from, to, tokenId, _data);\r\n    }\r\n\r\n    function safeTransferFrom(\r\n        address from,\r\n        address to,\r\n        uint256 tokenId\r\n    ) public virtual override {\r\n        Asset memory asset = assets[tokenId];\r\n        require(asset.isTransferable, \"This asset is non-transferable.\");\r\n        require(!hasCategory(asset.categories, \"Non-Transferable\"), \"Soulbound token: transfer not allowed for Non-Transferable category\");\r\n\r\n        super.safeTransferFrom(from, to, tokenId);\r\n    }\r\n\r\n    function transferFrom(\r\n        address from,\r\n        address to,\r\n        uint256 tokenId\r\n    ) public virtual override {\r\n        Asset memory asset = assets[tokenId];\r\n        require(asset.isTransferable, \"This asset is non-transferable.\");\r\n        require(!hasCategory(asset.categories, \"Non-Transferable\"), \"Soulbound token: transfer not allowed for Non-Transferable category\");\r\n\r\n        super.transferFrom(from, to, tokenId);\r\n    }\r\n\r\n    function _burn(uint256 tokenId) internal virtual override {\r\n        address owner = ownerOf(tokenId);\r\n        Asset memory asset = assets[tokenId];\r\n\r\n        super._burn(tokenId);\r\n\r\n        if (hasCategory(asset.categories, \"Functional\") && asset.status == Status.Active) {\r\n            activeFunctionalAssets[owner][asset.assetType] = 0;\r\n        }\r\n    }\r\n\r\n    // Utility function to check if an asset has a specific category\r\n    function hasCategory(string[] memory categories, string memory category) internal pure returns (bool) {\r\n        for (uint256 i = 0; i < categories.length; i++) {\r\n            if (keccak256(bytes(categories[i])) == keccak256(bytes(category))) {\r\n                return true;\r\n            }\r\n        }\r\n        return false;\r\n    }\r\n}\r\n",
  "sourcePath": "/home/vsamato/quorum/quorum-test-network/truffle_project/contracts/AssetManager.sol",
  "compiler": {
    "name": "solc",
    "version": "0.8.1+commit.df193b15.Emscripten.clang"
  },
  "schemaVersion": "3.4.16",
  "updatedAt": "2024-08-14T00:33:14.471Z",
  "networkType": "ethereum",
  "devdoc": {
    "kind": "dev",
    "methods": {
      "approve(address,uint256)": {
        "details": "See {IERC721-approve}."
      },
      "balanceOf(address)": {
        "details": "See {IERC721-balanceOf}."
      },
      "getApproved(uint256)": {
        "details": "See {IERC721-getApproved}."
      },
      "isApprovedForAll(address,address)": {
        "details": "See {IERC721-isApprovedForAll}."
      },
      "name()": {
        "details": "See {IERC721Metadata-name}."
      },
      "owner()": {
        "details": "Returns the address of the current owner."
      },
      "ownerOf(uint256)": {
        "details": "See {IERC721-ownerOf}."
      },
      "renounceOwnership()": {
        "details": "Leaves the contract without owner. It will not be possible to call `onlyOwner` functions anymore. Can only be called by the current owner. NOTE: Renouncing ownership will leave the contract without an owner, thereby removing any functionality that is only available to the owner."
      },
      "safeTransferFrom(address,address,uint256)": {
        "details": "See {IERC721-safeTransferFrom}."
      },
      "setApprovalForAll(address,bool)": {
        "details": "See {IERC721-setApprovalForAll}."
      },
      "supportsInterface(bytes4)": {
        "details": "See {IERC165-supportsInterface}."
      },
      "symbol()": {
        "details": "See {IERC721Metadata-symbol}."
      },
      "tokenURI(uint256)": {
        "details": "See {IERC721Metadata-tokenURI}."
      },
      "transferFrom(address,address,uint256)": {
        "details": "See {IERC721-transferFrom}."
      },
      "transferOwnership(address)": {
        "details": "Transfers ownership of the contract to a new account (`newOwner`). Can only be called by the current owner."
      }
    },
    "version": 1
  },
  "userdoc": {
    "kind": "user",
    "methods": {},
    "version": 1
  }
}